:0800000012C0FECFFDCFFCCFC2
:10000800FBCFFACFF9CFF8CFF7CFF6CFF5CFF4CFB4
:10001800F3CFF2CF1EC0F0CFEFCFEECFEDCFF894F5
:10002800EE27ECBBF1E0FBBFEBBFE5BF8DE0A2E044
:10003800BB27ED938A95E9F780E094E0A0E6ED937D
:100048000197E9F7EFE5EDBFE4E0EEBFC0E6D1E0E8
:1000580030C08A93AA93BA93EA93FA93EFB7EA93D4
:10006800E0916201A0E6B1E0F0E0EE0FFF1FAE0FF5
:10007800BF1FE4B1F5B1ED93FC9364B075B0A091E6
:100088006201AF5FA0936201A13018F0E0E0E09355
:100098006201E0916201E05CE7B983E08A95F1F7DB
:1000A800369AE991EFBFF991E991B991A9918991AE
:1000B8001895EFEFE7BBE0E0E8BBE4BBE5BBE0EE9B
:1000C800E1BBE0E0E2BBE3BFE2BFEFBDEEBDEDBDEB
:1000D800ECBDE7BDE6BDEBBDEABDE9BDE8BDE2BDEF
:1000E800E5BDE4BDE3BDE9BFE5BFEAB9E0E8E8B9CD
:1000F800E0E4E7B9EFECE6B9E0E0E0BFEDB9E6BF70
:10010800EDE1E1BDEDE0E1BD7894E8E2F0E063D037
:10011800E8F4C09AECE4F4E0E619F7094F0153015A
:10012800979A44245524A414B50428F0C69AF201D9
:1001380031962F01F8CF442455248414950428F0CF
:10014800C698F20131962F01F8CF0AC0C098C69818
:10015800979AA8ECB0E042D09798A8ECB0E03ED0CF
:10016800E4E6F0E038D010F4969A01C09698E4EBF3
:10017800F0E031D010F4959A01C09598E4E0F1E0F0
:100188002AD010F4C79A01C0C798ECE7F1E023D051
:1001980010F4C19A01C0C198E4EFF1E01CD010F44A
:1001A800C29A01C0C298E8E5F2E015D010F4C39AEB
:1001B80001C0C398E0E2F3E00ED010F4C49A01C085
:1001C800C498E4E8F3E007D010F4C59A01C0C598D4
:1001D800A8959BCFFFCFE615F7050895109639F03F
:1001E8008AEF90E00197F1F7A8951197C9F708955C
:00000001FF
